:020000040000FA
:020000002028B6
:040002000034003492
:100040005E200030772041308D204E308D204730AB
:100050008D2045308D204C308D204F308D2020302C
:100060008D2053308D2041308D204E308D204330F7
:100070008D2048308D2045308D205A308D20003025
:1000800074204C308D204F308D204A308D204130EF
:100090008D2020308D2049308D2044308D203A3005
:1000A0008D2032308D2035308D2037308D20373007
:1000B0008D2032308D2032308D205D2883168801CE
:1000C00087018312AE20071030309E20AE203030E2
:1000D0009E20AE2030309E20AE2020309E208320F7
:1000E0007A207D2080200800C030862008008030E3
:1000F000862008000C308620080001308620080089
:10010000063086200800283086200800A10021083B
:100110009E20A10E21089E200800A2000714942012
:10012000A20E220894200800F039A3000714080842
:100130000F39A30423088800A8200800F039A00084
:10014000071008080F39A00420088800A82008001C
:10015000AE20AE208714AE2087100800FA30A4002D
:0A0160000000A40BB02820080800DE
:02400E00323F3F
:00000001FF
